S00D000074657374312E7372656326
S11300000C942A000C9447000C9447000C9447006D
S11300100C9447000C9447000C9447000C94470040
S11300200C9447000C9447000C9447000C94470030
S11300300C9447000C9447000C9447000C94470020
S11300400C9447000C9447000C9447000C94470010
S11300500C94470011241FBECFE5D8E0DEBFCDBF0E
S113006011E0A0E6B0E0EEEAF5E102C005900D92E1
S1130070AE37B107D9F721E0AEE7B1E001C01D9278
S1130080A03AB207E1F70E948A080C94D50A0C94AE
S11300900000672B09F09FC0009711F4D8980895C9
S11300A08130910511F4D99808958230910511F4A5
S11300B0DA9808958330910511F4DB98089584301B
S11300C0910511F4DC9808958530910511F4DD98BB
S11300D008958630910511F4DE98089587309105CE
S11300E011F4DF9808958A30910511F4C0980895A9
S11300F08B30910511F4C19808958C30910511F459
S1130100C29808958D30910511F4C39808958E30E6
S1130110910511F4C49808958F30910511F4C59890
S113012008958031910511F4C6980895813191059F
S113013011F4C79808958431910511F4A89808958D
S11301408531910511F4A99808958631910511F42A
S1130150AA9808958731910511F4AB9808958831D0
S1130160910511F4AC9808958931910511F4AD9875
S113017008958A31910511F4AE9808958B31910553
S113018011F4AF9808958E31910511F49098089563
S11301908F31910511F4919808958032910511F4ED
S11301A0929808958132910511F4939808958232BA
S11301B0910511F4949808958332910511F495985A
S11301C008958432910511F496980895859709F05D
S11301D09FC097980895009711F4D89A0895813094
S11301E0910511F4D99A08958230910511F4DA9A9F
S11301F008958330910511F4DB9A089584309105B4
S113020011F4DC9A08958530910511F4DD9A08956E
S11302108630910511F4DE9A08958730910511F422
S1130220DF9A08958A30910511F4C09A08958B30AD
S1130230910511F4C19A08958C30910511F4C29A74
S113024008958D30910511F4C39A08958E30910567
S113025011F4C49A08958F30910511F4C59A089544
S11302608031910511F4C69A08958131910511F4F4
S1130270C79A08958431910511F4A89A0895853197
S1130280910511F4A99A08958631910511F4AA9A59
S113029008958731910511F4AB9A08958831910539
S11302A011F4AC9A08958931910511F4AD9A089529
S11302B08A31910511F4AE9A08958B31910511F4A8
S11302C0AF9A08958E31910511F4909A08958F3163
S11302D0910511F4919A08958032910511F4929A3E
S11302E008958132910511F4939A0895823291050B
S11302F011F4949A08958332910511F4959A08950E
S11303008432910511F4969A0895859709F4979A81
S11303100895CF93C82F80FF07C061E070E082E2A8
S113032090E00E94490006C060E070E082E290E044
S11303300E944900C1FF07C061E070E083E290E0E1
S11303400E94490006C060E070E083E290E00E94F1
S11303504900C2FF07C061E070E084E290E00E94BF
S1130360490006C060E070E084E290E00E94490029
S1130370C3FF07C061E070E085E290E00E9449009D
S113038006C060E070E085E290E00E944900CF91F1
S11303900895CF93C82F60E070E08AE190E00E9456
S11303A049008C2F0E94890161E070E08BE190E0AC
S11303B00E94490089EF90E00197F1F700C0000026
S11303C060E070E08BE190E00E94490089EF90E0EA
S11303D00197F1F700C00000CF91089580E00E94DA
S11303E0C90181E00E94C9010895CF93C62F8130CD
S11303F059F480E8860F82958F700E94C9018C2F72
S11304008F700E94C9010CC0823051F480EC860FB9
S113041082958F700E94C9018C2F8F700E94C90130
S1130420CF91089580E00E94890187E893E10197C4
S1130430F1F700C0000083E00E94C90181EE94E05E
S11304400197F1F700C0000083E00E94C9018DEB21
S11304509AE00197F1F700C0000083E00E94C9010F
S113046082E00E94C90182E00E94C90188E00E94E2
S1130470C90180E00E94C9018CE00E94C90180E0AA
S11304800E94C90186E00E94C9010895CF93C82F34
S113049061E070E08AE190E00E9449008C2F82952F
S11304A08F700E94890161E070E08BE190E00E940E
S11304B0490089EF90E00197F1F700C0000060E087
S11304C070E08BE190E00E94490089EF90E0019791
S11304D0F1F700C000008C2F8F700E94890161E049
S11304E070E08BE190E00E94490089EF90E0019771
S11304F0F1F700C0000060E070E08BE190E00E9442
S1130500490089EF90E00197F1F700C00000CF9116
S11305100895CF93DF93EC018881882331F02196ED
S11305200E94460289918111FBCFDF91CF910895FA
S113053081E00E94C9018CE00E94C901089581E014
S11305400E94C90188E00E94C901089580E487B926
S113055087E886B9089597B1907E97B997B1877067
S1130560982B97B9369A349BFECF349A84B195B1BF
S113057008950E94EE0163E081E00E94F50180E6A7
S113058090E00E94890260E082E00E94F5011092EE
S11305908F0110928E018AE20E9446022FE58AEEB4
S11305A090E0215080409040E1F700C0000080912D
S11305B08E0190918F01019690938F0180938E010B
S11305C040974CF30E94EE010895BC01990F880BEB
S11305D0990B0E94910920E030EC4FE754E40E940B
S11305E0E70820E030E048EC52E40E941D0A0E9433
S11305F06009DC01CB014AE050E068E971E00E9447
S1130600950A08950F931F93CF93DF9310928F0150
S113061010928E01C0E0D4E00FEF13E08AE690E080
S11306200E94890281E00E94AB029E01281B390BC3
S1130630C90186549109811534E093072CF49093F1
S113064091018093900104C0109391010093900153
S113065080919001909191010E94E50288E991E0D6
S11306600E9489028FE191E00E94890260E082E0A9
S11306700E94F50188E790E00E94890280E00E94D0
S1130680AB02885C91092AF09093910180939001C8
S113069004C0109291011092900180919001909168
S11306A091010E94E50288E991E00E9489028FE1AC
S11306B091E00E9489028FE996E821E08150904000
S11306C02040E1F700C000000E94EE0180918E01FD
S11306D090918F01029690938F0180938E010497DD
S11306E00CF49CCFDF91CF911F910F9108950F933C
S11306F01F93CF93DF9310928F0110928E0104E128
S113070013E0C8E2D3E081E890E00E94890284E02B
S11307100E94AB02825C91402AF0909391018093F5
S1130720900104C010929101109290018091900167
S1130730909191010E94E50288E991E00E9489026A
S11307408FE191E00E94890260E082E00E94F5015D
S113075086E890E00E94890285E00E94AB02805BFB
S11307609D4F909391018093900199237CF089325D
S113077093402CF0D0939101C09390010BC08091D1
S11307809001909191018431934024F4109391014C
S11307900093900180919001909191010E94E50253
S11307A088E991E00E9489028FE191E00E94890228
S11307B08FE996E821E0815090402040E1F700C0A5
S11307C000000E94EE0180918E0190918F010296AB
S11307D090938F0180938E0103970CF494CFDF9153
S11307E0CF911F910F91089510928F0110928E0155
S11307F08BE890E00E9489028091840190918501A8
S11308000E94E50288E991E00E9489028FE191E06B
S11308100E94890260E082E00E94F5018CE890E089
S11308200E9489024AE050E068E971E080919E01EB
S113083090919F010E94950A88E991E00E948902A3
S11308408FE191E00E9489022FE986E891E021502E
S113085080409040E1F700C000000E94EE018091CA
S11308608E0190918F01029690938F0180938E0157
S113087003970CF4BDCF0895CF93DF9381E990E003
S11308800E9489022FE53AEE80E0215030408040FA
S1130890E1F700C0000060E082E00E94F50180EA18
S11308A090E00E948902C0917E01D0917F0182E094
S11308B00E94AB029E01281B390BC90199232CF01D
S11308C0309391012093900104C0109291011092F1
S11308D090014AE050E068E971E0809188019091CC
S11308E089010E94950A88E991E00E9489023FE902
S11308F086E891E0315080409040E1F700C000006C
S11309000E94EE0181E990E00E9489022FE53AEE0F
S113091080E0215030408040E1F700C0000060E0FA
S113092082E00E94F5018CEA90E00E948902C09165
S11309309201D091930183E00E94AB029E01281B97
S1130940390BC90199232CF0309391012093900124
S113095004C010929101109290014AE050E068E9BD
S113096071E080918001909181010E94950A88E94B
S113097091E00E9489023FE986E891E0315080408D
S11309809040E1F700C000000E94EE01DF91CF919A
S1130990089582E00E94AB0290937F0180937E01D0
S11309A083E00E94AB029093930180939201089597
S11309B061E081E00E94F50188EB90E00E948902E9
S11309C02FE78AE196E0215080409040E1F700C093
S11309D0000061E082E00E94F50188EC90E00E9452
S11309E089022FEB87E299E0215080409040E1F7A3
S11309F000C000000E94C9040E94EE0162E081E090
S1130A000E94F50187ED90E00E9489022FE78AE1B8
S1130A1096E0215080409040E1F700C000000E9421
S1130A20EE0161E081E00E94F50186EE90E00E9413
S1130A30890264E082E00E94F5018CEF90E00E945C
S1130A40890210928F0110928E012FE58AEE90E0B8
S1130A50215080409040E1F700C000000E949F02B6
S1130A6080918E0190918F01019690938F018093D4
S1130A708E01069754F310928F0110928E012FE588
S1130A808AEE90E0215080409040E1F700C00000E1
S1130A900E94980280918E0190918F01019690930B
S1130AA08F0180938E01069754F30E94EE011092F9
S1130AB08F0110928E0180E090E04AE050E068E9F6
S1130AC071E00E94950A8AE091E00E94890266E042
S1130AD082E00E94F5018CE191E00E94890288E99C
S1130AE091E00E9489028EE191E00E9489022FE741
S1130AF08AE196E0215080409040E1F700C0000078
S1130B000E94EE01B09B1AC063E081E00E94F501EF
S1130B1081E291E00E94890264E082E00E94F50192
S1130B208BE291E00E9489022FE38DE093E0215053
S1130B3080409040E1F700C00000089580918E014C
S1130B4090918F01019690938F0180938E01853649
S1130B5091050CF4B2CF089589B990BD82E08BB9A8
S1130B6086E880BD88E18AB908955D9BFECF8CB983
S1130B700895CF93DF93EC018881882331F0219687
S1130B800E94B50589918111FBCFDF91CF91089522
S1130B900F931F93CF93DF93CDB7DEB7C657D10919
S1130BA00FB6F894DEBF0FBECDBF85E290E09B8BFD
S1130BB08A8B8EE390E0A0E0B0E08C8B9D8BAE8BB3
S1130BC0BF8BFE01789683E3DF011D928A95E9F7D6
S1130BD08AE09DE0A0E02E968DAF9EAFAFAF2E973A
S1130BE081E00E94AB022AEB33E0A901481B590BB8
S1130BF0CA01811554E095072CF4909391018093D8
S1130C00900106C08FEF93E090939101809390013F
S1130C106091900170919101072E000C880B990B43
S1130C200E94910920E030EC4FE754E40E94E70869
S1130C3020E030E048EC52E40E941D0A0E94590969
S1130C40DC01CB0190938D0180938C014AE050E04C
S1130C50BE016F5F7F4F0E94950A81E491E5AAE38C
S1130C60B0E062968CAF9DAFAEAFBFAF6297BE01EE
S1130C706F5F7F4FCE01825B9F4F0E948A0ABE0145
S1130C80625B7F4FCE0144960E948A0A80E00E94F4
S1130C90AB02885C91092AF09093910180939001B2
S1130CA004C0109291011092900160919001709192
S1130CB09101072E000C880B990B0E94910920E0EA
S1130CC030EC4FE754E40E94E70820E030E048ECC1
S1130CD052E40E941D0A0E945909DC01CB01909341
S1130CE09D0180939C014AE050E0BE016C5F7F4F00
S1130CF00E94950A86E0E4E3F1E0DE01AE5ABF4FBC
S1130D0001900D928A95E1F7BE016C5F7F4FCE0191
S1130D108E5A9F4F0E948A0ABE016E5E7F4FCE019B
S1130D208E5A9F4F0E948A0ABE016E5A7F4FCE018F
S1130D3044960E948A0A84E00E94AB02825C91403D
S1130D402AF0909391018093900104C01092910134
S1130D50109290016091900170919101072E000C06
S1130D60880B990B0E94910920E030EC4FE754E482
S1130D700E94E70820E030E048EC52E40E941D0A9B
S1130D800E945909DC01CB01909395018093940151
S1130D904AE050E0BE01695F7F4F0E94950A85E0FA
S1130DA0EAE3F1E0DE01A85ABF4F01900D928A9563
S1130DB0E1F7BE01695F7F4FCE01885A9F4F0E94C1
S1130DC08A0ABE016E5E7F4FCE01885A9F4F0E94F1
S1130DD08A0ABE01685A7F4FCE0144960E948A0A4D
S1130DE085E00E94AB02805B9D4F909391018093BC
S1130DF0900199238CF0893293403CF088E293E08F
S1130E0090939101809390010DC0809190019091F5
S1130E1091018431934034F484E193E090939101FF
S1130E20809390016091900170919101072E000CC4
S1130E30880B990B0E94910920E030EC4FE754E4B1
S1130E400E94E70820E030E048EC52E40E941D0ACA
S1130E500E945909DC01CB019093830180938201A4
S1130E604AE050E0BE01665F7F4F0E94950A85E02C
S1130E70EFE3F1E0DE01A35ABF4F01900D928A9592
S1130E80E1F7BE01665F7F4FCE01835A9F4F0E94F8
S1130E908A0ABE016E5E7F4FCE01835A9F4F0E9425
S1130EA08A0ABE01635A7F4FCE0144960E948A0A81
S1130EB0209194013091950180919C0190919D0124
S1130EC0280F391F8091820190918301280F391FC7
S1130ED084E690E0821B930B90939F0180939E0184
S1130EE04AE050E0BE01665F7F4F0E94950A85E0AC
S1130EF0E4E4F1E0DE01AE59BF4F01900D928A9512
S1130F00E1F7BE01665F7F4FCE018E599F4F0E946D
S1130F108A0ABE016E597F4FCE0144960E948A0A06
S1130F2083E00E94AB022091920130919301821BD5
S1130F30930B2AF0909391018093900104C0109236
S1130F409101109290018091900190919101909360
S1130F508901809388014AE050E0BE01665F7F4FBB
S1130F600E94950A85E0E9E4F1E0DE01A959BF4F4A
S1130F7001900D928A95E1F7BE01665F7F4FCE0125
S1130F8089599F4F0E948A0ABE0169597F4FCE0139
S1130F9044960E948A0A83E00E94AB022091920147
S1130FA030919301821B930B2AF0909391018093CB
S1130FB0900104C0109291011092900180919001CF
S1130FC09091910190938101809380014AE050E0D7
S1130FD0BE01625F7F4F0E94950A85E0EEE4F1E076
S1130FE0DE01A459BF4F01900D928A95E1F7BE012D
S1130FF0625F7F4FCE0184599F4F0E948A0ABE01CF
S113100064597F4FCE0144960E948A0A81E00E946F
S1131010AB02909391018093900199232CF4109248
S113102091011092900111C002977CF081E090E050
S1131030909391018093900180919E0190919F01E2
S1131040019790939F0180939E01109285011092C5
S113105084014AE050E0BE01695F7F4F80919001B6
S1131060909191010E94950A8E010F581F4F86E0BE
S1131070E3E5F1E0D80101900D928A95E1F7BE0114
S1131080695F7F4FC8010E948A0AF801019000201D
S1131090E9F7319785E290E091838083B801CE012E
S11310A044960E948A0ABE01655B7F4FCE01449636
S11310B00E948A0ACE0144960E94B905CA58DF4F9D
S11310C00FB6F894DEBF0FBECDBFDF91CF911F9155
S11310D00F91089580919401909195010297A4F441
S11310E08091880190918901853691056CF48091F5
S11310F08001909181018536910534F480919C01A1
S113110090919D0102971CF081E085BB089582E0D7
S113111085BB08958FEF81BB84BB17BA18BA0E94B0
S113112012020E94A6028CE090E00E94AC050E948C
S1131130D8040E94B902C0E0D0E0E12CF12C01E017
S113114010E00E94C8050E946A08B19B22C0CD2B02
S1131150B9F489E591E00E94890265E082E00E9489
S1131160F5018AE691E00E9489022FE78AE196E080
S1131170215080409040E1F700C000000E94EE0141
S11311800E9402030E9477030E94F403C02FD12F10
S1131190D8CF2197B9F489E591E00E94890263E0F0
S11311A082E00E94F50183E791E00E9489029FE7B3
S11311B02AE186E0915020408040E1F700C0000021
S11311C00E94EE010E943C04CE2DDF2DBACF0E9476
S11311D0FB080C94E3090E94DC0958F00E94D5092D
S11311E040F029F45F3F29F00C94CC0951110C9480
S11311F0170A0C94D2090E94F40968F39923B1F3F5
S1131200552391F3951B550BBB27AA276217730728
S1131210840738F09F5F5F4F220F331F441FAA1FBC
S1131220A9F335D00E2E3AF0E0E832D09150504078
S1131230E695001CCAF72BD0FE2F29D0660F771F26
S1131240881FBB1F261737074807AB07B0E809F00C
S1131250BB0B802DBF01FF2793585F4F3AF09E3F91
S1131260510578F00C94CC090C94170A5F3FE4F311
S1131270983ED4F3869577956795B795F7959F5FD4
S1131280C9F7880F911D9695879597F90895E1E020
S1131290660F771F881FBB1F621773078407BA077F
S11312A020F0621B730B840BBA0BEE1F88F7E095DA
S11312B008950E9460096894B1110C94170A089566
S11312C00E94FC0988F09F5798F0B92F9927B751CD
S11312D0B0F0E1F0660F771F881F991F1AF0BA95D6
S11312E0C9F714C0B13091F00E94160AB1E0089514
S11312F00C94160A672F782F8827B85F39F0B93F06
S1131300CCF3869577956795B395D9F73EF4909588
S11313108095709561957F4F8F4F9F4F0895E89406
S113132009C097FB3EF490958095709561957F4F29
S11313308F4F9F4F9923A9F0F92F96E9BB279395D7
S1131340F695879577956795B795F111F8CFFAF4E7
S1131350BB0F11F460FF1BC06F5F7F4F8F4F9F4F18
S113136016C0882311F096E911C0772321F09EE876
S1131370872F762F05C0662371F096E8862F70E0DC
S113138060E02AF09A95660F771F881FDAF7880FB6
S11313909695879597F9089597F99F6780E870E087
S11313A060E008959FEF80EC089500240A941616D7
S11313B0170618060906089500240A94121613063F
S11313C0140605060895092E0394000C11F48823CD
S11313D052F0BB0F40F4BF2B11F460FF04C06F5FE9
S11313E07F4F8F4F9F4F089557FD9058440F551FBF
S11313F059F05F3F71F04795880F97FB991F61F093
S11314009F3F79F087950895121613061406551F09
S1131410F2CF4695F1DF08C0161617061806991F75
S1131420F1CF86957105610508940895E894BB276A
S113143066277727CB0197F908950E94300A0C9408
S1131440E3090E94D50938F00E94DC0920F09523B5
S113145011F00C94CC090C94D20911240C94170AA1
S11314600E94F40970F3959FC1F3950F50E0551F46
S1131470629FF001729FBB27F00DB11D639FAA27E5
S1131480F00DB11DAA1F649F6627B00DA11D661F34
S1131490829F2227B00DA11D621F739FB00DA11D55
S11314A0621F839FA00D611D221F749F3327A00D0F
S11314B0611D231F849F600D211D822F762F6A2FAB
S11314C011249F5750409AF0F1F088234AF0EE0F10
S11314D0FF1FBB1F661F771F881F91505040A9F73D
S11314E09E3F510580F00C94CC090C94170A5F3F81
S11314F0E4F3983ED4F3869577956795B795F79579
S1131500E7959F5FC1F7FE2B880F911D96958795F0
S113151097F90895FB01DC010D900020E9F711977C
S113152001900D920020E1F708954532510520F411
S1131530423010F00C94A00AFB011082CB010895F4
S1131540BB274A3031F4992322F4BDE2909581956A
S11315509F4F0C94AC0ABB27FB015527AA27880F81
S1131560991FAA1FA41710F0A41B83955051B9F713
S1131570A05DAA3308F0A95DA193009779F7B11192
S1131580B1931192CB010C94C50ADC01FC01672FC5
S113159071917723E1F7329704C07C916D93708346
S11115A06291AE17BF07C8F30895F894FFCF09
S11315AE416E616C797A696E67004169722051757A
S11315BE616C697479203D004C50472F4832203DB0
S11315CE00434F203D004E32203D00434F32203D1C
S11315DE004475737420636F6E646974696F6E0072
S11315EE4431206C6576656C3A2D20004432206CB3
S11315FE6576656C3A2D20002E2E2E2E57454C43C3
S113160E4F4D452E2E2E2E002E41697220416E61B5
S113161E6C797A65722E0047524F55502031362020
S113162E2849544D2900507265706172696E6720A5
S113163E4761732053656E736F727300506C6561EE
S113164E736520776169742E2E0050726570617215
S113165E696E672053656E736F72730028002925B7
S113166E00707265706172696E670043616E6365C6
S113167E6C656400204C50473A0020434F3A0020DA
S113168E4E323A00204F323A002044313A00204480
S113169E323A0020434F323A0053797374656D2009
S11316AE6368616E676520746F00476173206D6FA8
S11116BE64650044757374206D6F64650000EC
S9030000FC
